:020000040800F2
:1050000000500020D58D0008FD840008FF840008B2
:1050100001850008038500080585000800000000E0
:1050200000000000000000000000000007850008EC
:1050300009850008000000000B8500080D850008A8
:10504000258E0008258E0008258E0008258700087B
:10505000258E0008258E00086185000881850008DE
:10506000A1850008D5850008F5850008258E000873
:10507000258E0008258E0008258E000881870008EF
:10508000258E0008258E000811850008258E000851
:1050900085870008258E0008258E000815860008E3
:1050A000258E0008258E0008258E0008DD86000864
:1050B000258E0008258E0008258E00083185000801
:1050C00041850008258E0008258E000851850008BE
:1050D000258E0008258E000821850008258E0008F1
:1050E0006586000841870008258E00080000000042
:1050F00000000000000000000000000000000000B0
:0C51000000000000000000005FF808F153
:105110002DE9114087B0042AC0F04F81C1F100038E
:1051200013F0030311D05FEAC37CA2EB030244BF78
:1051300011F8013B00F8013B21BF11F8014B11F8B8
:1051400001CB00F8014B00F801CB80EA010C1CF008
:10515000030F4ED18DE8E00FC0F1000313F01C03E4
:1051600016D0934288BF02F01C035FEA037C24BF81
:10517000F0C9F0C044BFB1E80003A0E8000313F099
:10518000040F1CBF51F804AB40F804ABA2EB0302C0
:10519000203A0BD321F01F0C0CF1400CB1E8F00FBA
:1051A000203AA0E8F00FF9D202F1200212F01F0F0E
:1051B0001AD05FEA027C24BFF0C9F0C044BFB1E856
:1051C0000003A0E800035FEA827C24BF51F8043B9F
:1051D00040F8043B44BF31F8024B20F8024B12F078
:1051E000010F1CBF0B780370BDE8E00FBDE8114054
:1051F0007047042AC0F0E1808DE8E00FC0F100059F
:1052000005F003054FEAC50CCCF1200E51F8043B24
:10521000A2F10402ED0744BF00F8013B1B0A21BFC5
:1052200000F8013B1B0A00F8013B1B0A042AC0F0EE
:10523000B68010F01C0F0FD051F8045BA2F10402ED
:1052400005FA0EF443EA040425FA0CF340F8044B83
:10525000042AEED2C0F0A380203AC0F08C80BCF1CA
:10526000180F5CD0BCF1080F2CD051F804CB644669
:10527000B1E8E00F203A28BF51F804CB43EA0443D9
:105280004FEA144444EA05444FEA154545EA064509
:105290004FEA164646EA07464FEA174747EA0847E5
:1052A0004FEA184848EA09484FEA194949EA0A49C1
:1052B0004FEA1A4A4AEA0B4AA0E8F8074FEA1B43AA
:1052C000D5D258E051F804CB6446B1E8E00F203A5B
:1052D00028BF51F804CB43EA04634FEA142444EA9C
:1052E00005644FEA152545EA06654FEA162646EAA3
:1052F00007664FEA172747EA08674FEA182848EA7F
:1053000009684FEA192949EA0A694FEA1A2A4AEA5A
:105310000B6AA0E8F8074FEA1B23D5D22BE051F81F
:1053200004CB6446B1E8E00F203A28BF51F804CB23
:1053300043EA04234FEA146444EA05244FEA15655E
:1053400045EA06254FEA166646EA07264FEA17673A
:1053500047EA08274FEA186848EA09284FEA196916
:1053600049EA0A294FEA1A6A4AEA0B2AA0E8F8072A
:105370004FEA1B63D5D2CEF1200C02F12002042AA1
:105380000DD351F8045BA2F1040205FA0EF443EACE
:10539000040425FA0CF340F8044B042AF1D25FEA26
:1053A0000E7544BF00F8013B1B0A22BF00F8013B09
:1053B0001B0A00F8013B9DE8E00FD20744BF11F83B
:1053C000012B00F8012B21BF11F8013B91F800C01F
:1053D00000F8013B80F800C007B0BDE811407047FD
:1053E00000210A2200F0A6BF00487047A420002038
:1053F000014B1868704700BFA4200020024B1A68B8
:1054000018601046704700BFA4200020024B0146E0
:10541000186800F00BB800BFD4020020024B014610
:10542000186801F055B800BFD40200202DE9F74FED
:1054300001F10B04162C074603D934F0070401D5FB
:1054400002E010248C4203D2A74B0C221A60DBE14D
:10545000384600F005FBB4F5FC7FA44D14D2E208F9
:1054600005EBC203DE689E4206D106F108037669A9
:105470009E4208BF023243D07368F268B16823F0DD
:105480000303CA6091605DE0620A1AD0042A02D860
:10549000A209383218E0142A01D85B3214E0542AE9
:1054A00002D8220B6E320FE0B2F5AA7F02D8E20BCF
:1054B000773209E040F254539A4204D8A20C7C326D
:1054C00002E03F2200E07E2205EBC203DE689E423E
:1054D00015D0716821F00301081B0F2801DD013A86
:1054E0000DE0002809DBF368B268D3609A60731896
:1054F0005A6842F001025A6091E1F668E7E701322A
:105500007A492E6901F10800864286466DD073689B
:1055100023F00303C4EB030CBCF10F0F0DDD3319B3
:105520004CF0010244F0010474604B610B61D860DF
:1055300098605A6043F80CC071E1BCF1000F4861FB
:10554000086101DB3344D3E7B3F5007F11D2DB08F8
:1055500098104FF0010C0CFA00FC48684CEA00006F
:10556000486001EBC3018B68F160B3608E60DE6060
:105570003BE0580A042802D89809383015E014286E
:1055800001D85B3011E0542802D8180B6E300CE0C3
:10559000B0F5AA7F02D8D80B773006E040F254511C
:1055A00088429ABF980C7C307E2005EBC00CDCF85A
:1055B0000810DFF8388161450DD10123801003FA0E
:1055C00000F0D8F804300343C8F804300B4608E074
:1055D0008968614504D0486820F003008342F7D30E
:1055E000CB68F360B1609E60CE600121931001FA38
:1055F00003F369688B425DD80B4206D122F00302A7
:105600005B000B4202F10402FAD005EBC2008046B7
:105610009446D8F80C6046452DD0716821F00309F6
:10562000C4EB09010F2913DD331944F00104F268BA
:10563000746056F8080FC260906041F001026B611F
:105640002B61C3F80CE0C3F808E05A6059500CE035
:1056500000290EDB06EB09014B6843F001034B60A8
:10566000F36856F8082FD3609A60384600F0F9F9CD
:10567000D9E0F668CFE70CF1010C1CF0030F08F13C
:105680000808C6D1910704D16A6822EA03026A6059
:1056900005E0A0F108010068013A8842F2D069688B
:1056A0005B008B4206D82BB162460B42ADD104326F
:1056B0005B00FAE7D5F80880D8F8043023F0030B34
:1056C000A34504D3C4EB0B030F2B00F39F80084EBC
:1056D00008EB0B02336804EB030AD5F808340133F6
:1056E00008D10AF1100A0DE0A4200020C803002010
:1056F000A82000200AF5805A0AF10F0A2AF47F6ACE
:105700002AF00F0A5046019201F03EFB421C8146EE
:10571000019A6CD0904201D2A84568D1736890423A
:105720000AEB0301716008D1C0F30B032BB9AB681E
:10573000DA444AF001025A604EE0D5F808340133E9
:1057400003D13B4BC3F8080402E0821A1144716094
:1057500010F007031CBFC3F1080300EB0309CA44A0
:1057600003F58053CAF30B0ACAEB030A504601F053
:105770000BFB431C04BF48464FF0000A7368C9EB9B
:1057800000005044534440F00100A845C5F808907B
:105790007360C9F804001FD0BBF10F0F03D80123B9
:1057A000C9F8043023E0D8F80430ABF10C0B2BF02F
:1057B000070B03F001034BEA0303C8F8043005228A
:1057C00008EB0B03BBF10F0F5A609A6004D93846FF
:1057D00008F1080100F07CFE7368F26A934284BF0E
:1057E000144AD362326B934284BF124A1363AB688C
:1057F0005A6822F00302A242C4EB020301D30F2B2A
:1058000004DC384600F02DF900260CE0AE6844F0C8
:10581000010243F0010334447260AC6063603846B7
:1058200000F01FF90836304603B0BDE8F08F00BF26
:10583000C8030020A8200020032A70B414D940EA2D
:1058400001039B0711D10C46034625681E682146BB
:10585000AE42184604F1040403F1040304D1043AEF
:10586000032A18462146F0D8C2B105780C78A54223
:1058700004BF02F1FF32002306D00CE010F8015FF4
:1058800011F8014FA54206D1934203F10103F5D16E
:10589000002070BC7047281B70BC70471046F8E7AA
:1058A0008842F0B410D98C18A0420DD28518531E2E
:1058B00042B121462A4611F8014D013B02F8014D43
:1058C0005C1CF8D1F0BC70470F2A44D940EA0103B0
:1058D0009B0744D1A2F110073F0900EB07161036D1
:1058E0000C4603462568103343F8105C6568103495
:1058F00043F80C5C54F8085C43F8085C54F8045C0A
:1059000043F8045CB342EDD17B1C02F00F0C1B0189
:10591000BCF1030F1944034423D90E461D466446C7
:1059200056F8047B043C032C45F8047BF8D8ACF112
:10593000040424F00304043402F003022344214449
:10594000002ABFD01A4411F8014B03F8014B9342CF
:10595000F9D1F0BC70470346002AF3D1B2E7034601
:10596000F0E76246002AEDD1ACE700BF032AF0B4AD
:10597000C9B208D82AB10244034603F8011B934276
:10598000FBD1F0BC704784070244034603D003F800
:10599000011B9F07FBD10C02D51A6718072D07EBD7
:1059A000074710DC032DC8BF1C4605DD44F8047B07
:1059B000151B032D2346F9DC9342E2D203F8011BA9
:1059C0009342FBD1DDE75E0718BF1D4606D02B468C
:1059D00043F8047B5E071D46F9D1D51A0C447F2D90
:1059E00004EB044423DD1C605C609C60DC601C6193
:1059F0005C619C61DC611C625C629C62DC621C63B9
:105A00005C639C63DC631C645C649C64DC641C6598
:105A10005C659C65DC651C665C669C66DC661C6778
:105A20005C679C67DC678033D51A7F2DDBDC1F2D1C
:105A30000ADD1C605C609C60DC601C615C619C61D8
:105A4000DC612033D51AF2E7072DABDD1E4634604A
:105A500074600836951B072D3346F8DCA2E700BFBB
:105A60007047704770B5144C06462568AB6BE3B9B8
:105A70001820FFF7CBFC2368A863996B43F20E3321
:105A80000B804AF6CD334B8041F234238B804EF2AB
:105A90006D63CB804DF6EC630B8105234B810B23AB
:105AA0008B8101220023C1E90423236830469B6BCC
:105AB0000021C3E9040170BDD402002038B51A4C9E
:105AC0002568AB6BE3B91820FFF7A0FC2368A86337
:105AD000996B43F20E330B804AF6CD334B8041F283
:105AE00034238B804EF26D63CB804DF6EC630B81DB
:105AF00005234B810B238B8101220023C1E9042361
:105B000023680A4C996B0A4B0A694869544303FBA2
:105B10000040A2FB03230132034443F10003C1E927
:105B2000042323F0004038BDD40200202DF4515846
:105B30002D7F954C0A46034903460868194600F034
:105B400003B800BFD40200202DE9F74F81460C4670
:105B500029B9114603B0BDE8F04FFFF767BC0192C9
:105B6000FFF77EFF019A54F8045C02F10B07162F31
:105B7000A4F1080825F0030603D937F0070701D57B
:105B800002E01027974204D2A34B0C221A60002097
:105B900083E1BE4280F25981A04908EB0603D1F8A7
:105BA00008E08B467345586805D020F00101194480
:105BB0004968C90725D420F00300734500EB0601AE
:105BC00017D107F1100C61451DDBC91B08EB070558
:105BD00041F00101CBF80850696054F8043C484694
:105BE00003F001031F4344F8047CFFF73AFF20460B
:105BF00053E1B94207DBDA689B680E46DA609360CE
:105C000023E100200346E90700F1CB8054F8085C4B
:105C1000C5EB0805696821F0030101EB060A002BBA
:105C200000F08A8073454DD10AEB000307F11001A3
:105C30008B42C0F28180A846EA6858F8081FCA6003
:105C40009160321F242A26D8132A1CD921681B2AC6
:105C5000A9606168E96003D805F11002083413E017
:105C6000A168242A2961E168696103D005F118025D
:105C7000103409E022691834AA6154F8041C05F1B3
:105C80002002E96100E042462168116061685160CC
:105C9000A168916005E0404621460193FFF700FEB0
:105CA000019BDB1BEA1943F00103CBF8082053608A
:105CB0006B68484603F001031F436F60FFF7D1FE96
:105CC0004046EAE00AEB000BBB4535DBDA689B682F
:105CD0002846DA60936050F8082FEB68D3609A602A
:105CE000321F242A23D8132A1AD923681B2AAB600F
:105CF0006368EB6003D805F11000083410E0A36876
:105D0000242A2B61E3686B6103D005F1180010347D
:105D100006E0236905F12000AB6163691834EB618B
:105D20002368036063684360A368836002E02146E0
:105D3000FFF7B6FD5E462EE0BA4532DB284650F846
:105D4000082FEB68D3609A60321F242A25D8132AC3
:105D50001AD923681B2AAB606368EB6003D805F18E
:105D60001000083410E0A368242A2B61E3686B61FB
:105D700003D005F11800103406E0236905F1200076
:105D8000AB6163691834EB61236803606368436047
:105D9000A36883605646A84657E02146FFF780FD7A
:105DA000F8E748461146FFF741FB0546002847D073
:105DB00054F8043CA0F1080223F0010343449A4242
:105DC00005D150F8043C23F003031E443DE0321F8C
:105DD000242A2ED8132A23D923681B2A0360636838
:105DE000436004D800F1080304F108021AE0A36834
:105DF000242A8360E368C36004D000F1100304F137
:105E000010020FE0236904F118020361616900F1D7
:105E10001803416106E000BFA4200020C803002051
:105E200003462246116819605168596092689A6069
:105E300002E02146FFF734FD4846214600F048FBCA
:105E40004846FFF70EFE284627E0F31B0F2BD8F835
:105E5000042013D902F0010208EB0701174343F0B5
:105E60000102C8F804700B444A605A68484642F080
:105E700001025A60083100F02BFB09E002F0010238
:105E80003243C8F804204644736843F0010373604A
:105E90004846FFF7E6FD08F1080003B0BDE8F08FC3
:105EA00010B5B1F90E000C4611461A4600F083FFFA
:105EB000002803DB636D0344636510BDA38923F4ED
:105EC0008053A38110BD10B5B1F90E000C461146E8
:105ED0001A4600F06EFF431CA38903D123F48053BC
:105EE000A38110BD43F48053A381606510BD70B5DC
:105EF0001E468B891546DA050C4605D5B1F90E000C
:105F00000222002100F055FFA389B4F90E0023F40A
:105F10008053A38129463246BDE8704000F026BF79
:105F2000B1F90E0000F042BF002310B50446036033
:105F30004360836081814366C28103614361836101
:105F400019465C300822FFF711FD054B246263629D
:105F5000044BA362044BE362044B236310BD00BFF8
:105F6000A15E0008EF5E0008C75E0008215F000820
:105F700010F8012B11F8013B012A28BF9A421CBFDF
:105F8000D01A704780EA010212F0030F3AD110F0E4
:105F9000030220F0030021F0030150F804CB08BFF6
:105FA00051F8043B0DD082F003024FEAC2026FF0B9
:105FB0007F4323FA02F251F8043B4CEA020C43EA15
:105FC000020300BFACF101329C4501BF22EA0C0282
:105FD00012F0803F50F804CB51F8043BF2D04FEA66
:105FE0000C604FEA1C2C012828BFB0EB036F08BFE0
:105FF0001B0AF4D003F0FF034FEA1060A0EB03008C
:10600000704700BF10F0030F0AD010F8012B11F8F1
:10601000013B012A28BF9A42F4D0A2EB030070474B
:106020004DF8045D4DF8044D4FF0010242EA0222A2
:1060300042EA024201F0030C21F0030150F8044B44
:1060400051F8045BBCF1020F26D04BD824F07F4CF2
:10605000BCEB152FA4EB020323EA04030DD113EAD2
:10606000C21308BF51F8045B0AD18CEA040CBCEBE4
:10607000056F0CD150F8044BE8E74FEA15255CE0BA
:1060800033F07F4352D10D784FEA146C55E04FEA5C
:10609000146C05F0FF0550E04FEA044CA4EB02033A
:1060A0004FEA1C4C23EA0403BCEB154F17D113EA4B
:1060B000C21308BF51F8045B07D18CEA040CBCEB97
:1060C000054F08D150F8044BE6E71B042ED10D888C
:1060D0004FEA144C31E04FEA05454FEA144C4FEAC1
:1060E00015452AE004F0FF0CBCEB156FA4EB02038E
:1060F00023EA04030DD113EAC21308BF51F8045B6D
:106100000AD18CEA040CBCEB052F0AD150F8044BE1
:10611000E8E74FEA156510E014F0FF0F06D051F8DC
:10612000045B4FEA142C25F07F4506E04FF0000099
:106130005DF8044B5DF8045B70470CF0FF0205F05E
:10614000FF00012828BF904204BF4FEA1C2C2D0AF3
:10615000F3D0A2EB00005DF8044B5DF8045B7047E0
:1061600080EA0102844612F0030F4FD111F0030FB1
:1061700032D14DF8044D11F0040F51F8043B0BD00F
:10618000A3F101329A4312F0803F04BF4CF8043B64
:1061900051F8043B16D100BF51F8044BA3F1013272
:1061A0009A4312F0803FA4F101320BD14CF8043B2A
:1061B000A24312F0803F04BF51F8043B4CF8044B5B
:1061C000EAD023460CF8013B13F0FF0F4FEA3323CC
:1061D000F8D15DF8044B704711F0010F06D011F8AB
:1061E000012B0CF8012B002A08BF704711F0020F99
:1061F000BFD031F8022B12F0FF0F16BF2CF8022B84
:106200008CF8002012F47F4FB3D1704711F8012BA6
:106210000CF8012B002AF9D1704700BF20F00301D0
:1062200010F00300C0F1000051F8043B00F1040C31
:106230004FEACC0C6FF000021CBF22FA0CF21343A1
:1062400040F2011C4CEA0C4CA3EB0C0222EA0302C4
:1062500012EACC1204BF51F8043B043002BFA3EB96
:106260000C029A4312EACC1204BF51F8043B0430EA
:10627000EAD092FAA2F2B2FA82F200EBD2007047B0
:1062800030B4002A4AD040EA010313F003032DD1B1
:10629000032A2BD904680D68AC4227D1043A3DD0BB
:1062A000A4F1013525EA040414F0803F3CD10C46EA
:1062B00003460EE05B686468A3F10135A34225EA5A
:1062C000030513D1043A29D015F0803F29D10346A4
:1062D0000C46032A00F1040001F10401EAD8551E1E
:1062E0002AB918792279801A30BC7047551E037874
:1062F0000A7893421AD1DDB1B3B16C1C0C448B1CEB
:10630000014604E0A3420CD001330028ECD011F880
:10631000010F13F8012C9042F4D0E4E7104630BC92
:106320007047002030BC70471846DDE71846DAE7B2
:106330002846D9E73E4B2DE9F047D3F800800546C3
:106340002B4613F8014B08EB0406767806F0080696
:1063500006F0FF070EB11D46F2E72D2C03D1AB1C52
:106360006C78012703E02B2C04BF6C78AB1C32F057
:1063700010050DD1302C08D11D7805F0DF05582D02
:106380004FD15C781022023302E0002A08BF0A22B3
:10639000002F0CBF6FF000454FF00045B5FBF2F940
:1063A000002602FB195A354608EB040C9CF801C084
:1063B0001CF0040F01D0303C0BE01CF0030C1BD090
:1063C000BCF1010F14BF4FF0570C4FF0370CCCEB62
:1063D0000404944210DAB6F1FF3F0AD04D4506D8C6
:1063E00001D1544503DC02FB0545012601E04FF0D5
:1063F000FF3613F8014BD7E7721C0BD10D4A002F63
:106400004FF022000CBF6FF000454FF000451060C8
:1064100021B90AE007B16D4239B106B1581E0860D2
:1064200003E0002A08BF0822B2E72846BDE8F0874B
:10643000D8070020A4200020F8B5224C0D460746BE
:10644000FFF70EFBA3685E6826F00306751B05F6D2
:10645000EF7525F47F6525F00F05A5F58055B5F599
:10646000805F04DA3846FFF7FCFA0020F8BD002010
:1064700000F08AFCA36833449842F3D1684200F0EC
:1064800083FC01300FD1002000F07EFCA368C21A0B
:106490000F2AE7DD0C4942F0010209685A60401AF0
:1064A0000A490860DEE7A368761B46F001065E60D5
:1064B000064B38461A68551B1D60FFF7D2FA0120BB
:1064C000F8BD00BFC8030020D0070020AC2000208A
:1064D000F8B506460D46002900F0A980FFF7C0FA7E
:1064E00055F804CC524CA5F108032CF00102981881
:1064F000A1684768884227F003070CF001011BD10F
:106500003A4439B955F8081C5B1A98680A44D968A6
:10651000C160886042F001015960A360454B1B686F
:106520009A4204D3444B30461968FFF785FF304642
:10653000BDE8F840FFF795BA476079B955F8085CAF
:1065400004F1080C5B1B2A449D68654508D0D3F80C
:106550000CC0C5F80CC0CCF8085002E0002100E0E7
:106560000121C5196D68ED070ED43A44856841B91B
:10657000324FBD4205D1636123610121DD609D6021
:1065800002E0C068E860856042F0010058609A50FF
:106590000029CCD1B2F5007F0ED2D2089110012093
:1065A000884061680143616004EBC204A268DC605A
:1065B0009A60A360D360BAE7510A042902D891090E
:1065C000383115E0142901D85B3111E0542902D883
:1065D000110B6E310CE0B1F5AA7F02D8D10B7731E7
:1065E00006E040F2545081429ABF910C7C317E21EA
:1065F00004EBC104A5680E48A54201D029460BE072
:106600000122891002FA01F142680A4342602946D8
:1066100008E08968A14204D0486820F00300824263
:10662000F7D3CD68DD609960AB60CB607FE7F8BDE4
:10663000C8030020D4070020A8200020D003002099
:1066400070B5012188B0044601F066FBA0F1300569
:10665000072D37D803226846214601F085FB1C49E7
:1066600004A801F0DEFA204604A901F043FB064627
:1066700004A801F093FA1EB1ADB22846002110E043
:10668000144904A801F0CDFA204604A901F032FB18
:10669000044604A801F082FA74B10A35ADB2284666
:1066A000314600F085FE684601F065FBC1B2284620
:1066B00001F032F8012401E04FF0FF34684601F0A8
:1066C0006DFA01E04FF0FF34204608B070BD00BF06
:1066D000844C0108864C01087FB50121054601F074
:1066E0001BFBA0F13004072C02D94FF0FF3024E04F
:1066F0001349684601F095FA2846694601F0FAFA0E
:106700000646684601F04AFA06B10EE00D496846B1
:1067100001F087FA2846694601F0ECFA054668461A
:1067200001F03CFA002DE0D00A34A4B22046012149
:1067300000F03EFE204600F08FFF04B070BD00BFA9
:10674000844C0108864C0108F0B5012185B004464F
:1067500001F0E2FAA0F13006072E02D94FF0FF3027
:106760004AE0684621460322072301F0D7FA68462B
:10677000224901F094FA0546684601F00FFA85B9FE
:10678000684621460322062301F0C8FA68461C49E0
:1067900001F085FA0746684601F000FA002FDDD0C7
:1067A00000E001251749684601F03BFA204669469A
:1067B00001F0A0FA0746684601F0F0F91FB1B6B241
:1067C0003046002111E01049684601F02AFA2046BF
:1067D000694601F08FFA0446684601F0DFF9002CA3
:1067E000BCD00A36B6B23046394600F0E1FD30463C
:1067F000294600F069FE012005B0F0BD884C010873
:106800008D4C0108844C0108864C01087FB501219C
:10681000054601F081FAA0F13004072C02D94FF0AF
:10682000FF3024E01349684601F0FBF92846694629
:1068300001F060FA0646684601F0B0F906B10EE0D4
:106840000D49684601F0EDF92846694601F052FA13
:106850000546684601F0A2F9002DE0D00A34A4B242
:106860002046032100F0A4FD204600F079FE04B08C
:1068700070BD00BF844C0108864C010808B509486A
:10688000094900F0CBFB0948094900F0C7FB09485A
:10689000094900F0C3FB09480949BDE8084000F078
:1068A000BDBB00BF914C01080D6800089D4C01085C
:1068B00049670008AA4C0108D9660008B54C0108D0
:1068C000416600087047000007B5002100910A46A4
:1068D0000B46024801F0AEF80EBD00BFDC070020F9
:1068E000002330B501311D460CE0040F092C01D8FE
:1068F000303400E03734013301F8014C000101F875
:10690000025BDBB29342F0D130BD00002DE9F041D3
:106910004FF000604FF4A04105F02EFC354B0124F0
:106920001C7004F08FFD04F063FA2146402005F04E
:106930008BFF6FF07F4004F0B1FBE72004F01AFCFE
:106940002D4B2E4D1C7004F091FA05F043F805F024
:10695000DDF92B4801F018FC2A4CDFF8C48001F067
:10696000D5FC2B7853B32378CBB900F049FC002831
:1069700011D002DA4FF47F0007E0012801D122484C
:1069800003E0022803D14FF0FF1004F087FBE7205B
:1069900004F0F0FB03E01D4A01232370137000F0A4
:1069A000EFFB58B998F800300BB104F005FC184A19
:1069B00000231370104A137023702B702378002B60
:1069C000CDD0134B1B78002BC9D1124B1F7867B168
:1069D000C5E7114B13B1FFF751FF37700F4B0BB1E8
:1069E000FFF770FF00F0C8FCB9E7084E3378002BC2
:1069F000EFD1F3E7342000204B160020481600208A
:106A00008D710008491600200060FF00E407002097
:106A10004A160020542000207D680008C568000840
:106A2000282000204E4B70B55A6801325A604D4BF9
:106A30001A6812B11A68013A1A604B4B1B783BB1C5
:106A40004A4B1B78002B32D0494B002B63D12EE0F0
:106A5000484C236813B12368013B27E0464B1B7861
:106A60002BBB464B1B7813BB454B1B78FBB955E042
:106A7000E72004F0F3FB2B780BB1142316E001237D
:106A800014E02B784BB14FF6FF7004F007FBE720C2
:106A900004F070FB0123337009E0E72004F0B0FB41
:106AA000384B1B780BB1322300E064232360324B58
:106AB0001C78002C40D1204604F00EFD40F6B73380
:106AC000984231D838E0304B1B782BB12D4B2F4AF0
:106AD0001B7812781A4237D00122274B04E000209D
:106AE00004F002FD2A4B01221A702A4B1A78002A60
:106AF00034D1264B1B78002B29D170BD1A60184B5E
:106B00001B78002B2AD1BDE8704000F0F3BB1A6857
:106B100001321A6070BD00F085FBC8E71E4E1B4DA8
:106B20003378002BADD0A3E7204604F0DDFC194BF1
:106B30001B78002BC7D0D8E7002004F0CDFC41F62D
:106B400057339842D1D9CAE700F0D4FBC4E7134BBE
:106B500047F22F5118688842D0D8D8E770BD00BFDF
:106B6000E40700201420002028200020740B0020BF
:106B70002572000860200020461600204A160020DA
:106B80004C16002048160020471600204916002009
:106B9000551600205F1600204B16002050160020CE
:106BA00008B5064B186004F0BFFE04F0D3FE04F0F5
:106BB000F1FEBDE8084006F01DBD00BFD401002075
:106BC000074B1B68052B08D1064B1A7A012A04D102
:106BD000987A1B7BC01AC0B270470020704700BF74
:106BE00068200020E40700200D4B10B51B68052B22
:106BF00013D10C4C237A012B0FD16289A389D31AAC
:106C0000012B04D100230320237206F050FEA38938
:106C1000E2180133907BA38110BD4FF0FF3010BD0F
:106C200068200020E4070020084B1B68052B0BD1CF
:106C3000074B1A6D99180132B2F5807F81F8540024
:106C40001A6501D100221A65704700BF6820002034
:106C5000E407002070B5234A92F85431012B3FD04D
:106C6000D2F85831B3F5807F02D10023C2F85831F1
:106C7000D2F85831126D1B49934203D1002381F899
:106C8000543170BD8CBFC3F58072C3EB0202154C4A
:106C9000C1F85C21D4F85C519AB2402D07D9403339
:106CA000403DC4F85831C4F85C51402606E0EB186A
:106CB000C4F858310023AEB2C4F85C310A4801254B
:106CC0008018C021324684F8545106F067FD2846EA
:106CD000314606F06DFE2846BDE8704006F0D6BD90
:106CE00070BD00BFE407002038080020094B10B534
:106CF00093E8140008331B68D0180AD0082206490C
:106D0000FFF7EEFD054920460422BDE81040FFF7DD
:106D1000E7BD10BDE8F7FF1F8301002093010020AD
:106D200038B50D46044602E054F8043B9847AC429F
:106D3000FAD338BD08B507480749FFF7F1FF074800
:106D40000749FFF7EDFF07480749BDE80840FFF78F
:106D5000E7BF00BF304F0108304F0108304F010836
:106D60007C4F01087C4F01087C4F01080138012845
:106D700008B505D9FEF738FB092303604FF0FF3251
:106D8000104608BDFEE70000064A08B5136818184B
:106D90001060054A904203D94FF0FF30FFF7F2FF31
:106DA000184608BD00000020004800204FF0FF30CA
:106DB00070470020704708B518B107E000230B5456
:106DC00001309042FADB22EAE27008BDFEF70CFBCC
:106DD000092303604FF0FF3008BD0000014B186825
:106DE000704700BF44090020064B0246582000FBB4
:106DF000013101F1080303CB106051601868906005
:106E0000704700BF44090020014BD3F8640170476C
:106E100044090020064B0246142000FB013101F515
:106E2000B67303CB1060516018689060704700BF64
:106E3000440900202DE9F8430F4B0746D3F864615D
:106E4000002403F5B4784FF0140910E009FB04F5B1
:106E500008EB0500043039460C22FFF711FA28B977
:106E6000054B5D19D5F86801BDE8F8830134B442DB
:106E7000ECDB0020BDE8F883440900202DE9F04F49
:106E8000234F8BB0814602A80D46002400F0C9FEB6
:106E90004FF0580B57F8043B2EE065B30BFB04F69C
:106EA000B819043049460C220193FFF7E9F9DFF8DD
:106EB0006080019B08F1040AE8B92846FFF7AEF9A3
:106EC00006F11003402834BF0246402229460AEB4F
:106ED0000300FEF71DF94644012386F8583002A945
:106EE00006A8746800F0BFFE06A8A047044606A8DE
:106EF00000F054FE04E001349C42CEDB4FF0FF343E
:106F000002A800F04BFE20460BB0BDE8F08F00BF9A
:106F10004409002038B50546064C28B104F068F94C
:106F2000012384F8303238BD04F046F984F8305239
:106F300038BD00BF44090020024B00221A7004F043
:106F400017BE00BF4A160020034B01224FF4C02099
:106F50001A7004F0A1BD00BF4A1600202DE9F341CC
:106F6000244B80461B780F46002B3ED1224B1D78C8
:106F7000002D3AD1214C0121D4F83802C4F8345202
:106F800000F01F0201FA02F1460904EB8606D6F86A
:106F90003422C4F83C520A43C6F8342241F2883203
:106FA000C4F8402204F50F720092013004F50D710F
:106FB0002A462B4603F0ACF8002818DDD4F8383206
:106FC0005A0904EB8204D4F8344203F01F0244FA55
:106FD00002F414F001000AD0184641462B463A4606
:106FE00003F02EF9064B1D6001E04FF0FF30BDE8C5
:106FF000FC8100BF5E1600205F16002044090020BF
:10700000501600200A4604490346D1F838021946B2
:10701000002303F08FB900BF440900202DE9F84F89
:1070200004468846002941D000283FD0204F3D68C3
:10703000042D3BD0002604374FF058090CE009FB23
:1070400006F03B58434506D13818043021460C223F
:10705000FFF716F950B30136AE42DFF858A0EEDB69
:1070600058276F43AAF1040909EB070607F110003E
:10707000C6F80480002140225044FEF777FC0AEB5A
:107080000700002104300C22FEF770FC20686168C4
:1070900006F1080303C3A06801351860002306F158
:1070A000040B86F858304AF8045C5436BDE8F88F73
:1070B000440900204809002030B51E48ADF5797D0F
:1070C00006F008FD002832D11B4B15A804931B4B7A
:1070D0005FAD05931A4B039006931A4B0CAC0793C4
:1070E000194B02950893194B0993194B0A93194BA5
:1070F0000B93194B0C93194B0D93194B0E93194B82
:107100000F93194B1093194B1193194B1293194B61
:107110001393194B149304F03DFD284604F040FDF1
:1071200000940448154902AA04AB06F0DAFC0DF5F8
:10713000797D30BD840C0020057000085D6F00086B
:10714000496F0008396F0008D1BB0008E5BA000894
:10715000156F0008A9780008DD6D0008E96D0008CA
:107160007D6E0008096E0008156E00085D7300084A
:10717000356E0008ADBB0008C1BB0008E8F7FF1F73
:10718000014807F0B6BA00BF840C00202DE9F04199
:10719000022011228CB0014602F03AFF051E2ADBC4
:1071A00007AE3046154906F0A9FD0223ADF80C30B4
:1071B00016238DF80E3033238DF80F30E0238DF831
:1071C000103000238DF8113001238DF81230BB23CD
:1071D000B0468DF81330032403AE1027132200238A
:1071E0008DE8C0002846414603F0AEF8013CF5D1D9
:1071F000284602F03BFF0CB0BDE8F081E8F7FF1F26
:1072000010B5074CFFF758FF204606F066FC2046F5
:1072100006F0CAFF0446FFF7B9FF204610BD00BFC5
:10722000840C002038B5114CD4F8505B2DB1D4F843
:10723000503B013BC4F8503B38BDD4F8543B0C4A9A
:1072400052F8230003F04EFFE72003F093FF64237E
:10725000084AC4F8503BD4F8543B126801339342B7
:10726000C4F8543BA8BFC4F8545B38BD440900209F
:10727000482101080400002010B5054CD4F838025C
:1072800002F0F4FE18B94FF0FF33C4F8383210BDE5
:107290004409002008B5FFF7EFFF02200121062274
:1072A00002F0B6FE114B0028C3F838021ADB0222A6
:1072B000A3F8582B162283F85A2B332283F85B2B22
:1072C000362283F85C2BD02283F85D2BE52283F8ED
:1072D0005E2B0749042283F85F2B1022BDE808408B
:1072E00002F0EABE4FF0FF3008BD00BF44090020A5
:1072F0009C140020044B01225A80114600221A805F
:10730000DA86024B19707047681700205E1600205D
:107310002DE9F843104B0746D3F86461002403F5C8
:10732000B4784FF0140910E009FB04F508EB0500F0
:10733000043039460C22FEF7A3FF28B9064B5D192D
:1073400095F87801BDE8F8830134B442ECDB4FF0E6
:10735000FF30BDE8F88300BF4409002008B5FFF7FF
:10736000D7FF0138082803D8024B1818007F08BD42
:10737000022008BD48210108094A0023D2F848121A
:1073800010B502F51372184606E092F850400CB1A1
:1073900082F85000013351328B42F6DB10BD00BF42
:1073A00044090020014806F085BB00BF840C002082
:1073B00014282DE9F34104460E467DD8FF297BD0E1
:1073C00000F0CCFB002865D00D2C75D00F2C73D0AD
:1073D0000E2C5FD170E0012C60D86DE0A4F1120397
:1073E000012B5FD868E0042003E0344B9F4203D1B7
:1073F0000820012105F034FAADF80480062E44D8A7
:10740000DFE806F00411181F26313C0010238DF828
:10741000073003238DF80630294B03EB04140023B7
:10742000A373083431E004238DF8073005EB04140E
:10743000012329E048238DF8073005EB04140223CB
:1074400022E028238DF8073005EB041403231BE00A
:1074500018238DF8073003238DF80630184B03EB03
:107460000414042310E01C238DF8073003238DF847
:107470000630134B03EB0414052305E000238DF8BD
:10748000073005EB04140623A373384601A905F061
:1074900009F911E000F080FA00289CD100F0C4FC4A
:1074A00000289BD1064D2301EA18EF58054BB2F88E
:1074B00004809F4299D196E7BDE8FC81000C014011
:1074C0001400002000080140142870B504460E4640
:1074D00042D8224B03EB00139B7B012B3CD0022BA9
:1074E0003AD0032B38D0062B36D0FF2B34D000F007
:1074F00035FB002821D00D2C2ED00F2C2CD00E2C9B
:107500001BD170BD012C1CD870BDA4F11203012B3E
:107510001BD870BD20460021FFF74AFF012E05D180
:1075200024012A192B5992881A6170BDA6B9240129
:107530002A192B5992885A6170BD00F02DFA002843
:10754000E0D100F071FC0028DFD1044D05EB0413FD
:107550009B7B042BE2D1DDE770BD00BF140000204F
:10756000142810B5044602D94FF0FF3010BD1D4B52
:1075700003EB00139B7B002BF6D0FF2BF4D000F025
:10758000EDFAF8B10D2CEFD00F2CEDD00E2C19D157
:10759000EAE7012C1AD8E7E7A4F11203012B19D866
:1075A000E2E793F850114B1EDBB2FD2BDCD82046EE
:1075B000FFF7FEFE0B4B24011A191859918805F0AC
:1075C000C5F810BD00F0E8F90028E2D100F02CFC6D
:1075D0000028E1D1034B03EB0412927B062AE9D188
:1075E000DFE700BF1400002010B54FF4004086B064
:1075F00005F002F901214FF4007005F031F915484A
:1076000004F0C4FD012400234FF46022114801A9B5
:1076100001938DF808308DF80930039204938DF8AA
:10762000144004F0E1FD0B48214604F001FE094836
:1076300004F007FE074804F009FE0028FAD10548C7
:1076400004F008FE034804F00AFE0028FAD106B050
:1076500010BD00BF00240140092838B5044601D8F8
:107660000A34A4B200F07AFA002847D00D2C02D1D7
:107670004FF0FF3038BD0F2CFAD00E2C3ED1F7E77B
:10768000A4F11203012B3FD8F2E7214D05EB0413BF
:107690009A79FF2AECD095F85111914206D09B7B44
:1076A0002046062185F85031FFF782FE95F85231C9
:1076B000012B05D1FFF798FF154B002283F85221CB
:1076C000134D05EB0414A17995F851318B4207D085
:1076D00000231048012204F0CFFDA37985F8513131
:1076E0000C48012104F0BFFD0A48022104F015FEF8
:1076F0000028F9D0074804F00DFE38BD00F04CF921
:1077000000F092FB0028BBD1142CBED9B0E700BF1B
:1077100014000020002401402DE9F041142888B015
:1077200004460D4600F2B3805A4B03EB00139B68EE
:10773000002B00F0AC8000F011FA002800F09580DA
:107740000D2C00F0A4800F2C00F0A1800E2C40F036
:107750008C809CE0012C00F28D8098E0A4F1120353
:10776000012B00F28C8092E0042B40F090804A4B79
:107770004BF680376F431E68484B01200146B6FB2D
:10778000F3F6FF2397FBF3F705F06AF80421204690
:10779000FFF70EFE3F4B013E03EB04139B68B3F172
:1077A000804F02D10120014608E03D4A0220934269
:1077B00003D03C4A934203D10420012105F05CF838
:1077C000344D4BF67F3305EB0415ADF80460A86823
:1077D000002601A9ADF80830ADF80A60ADF80660E2
:1077E00005F01AF96023ADF81860AE89ADF81030D5
:1077F000012305F10808ADF81230ADF8167046B94E
:10780000A86804A905F052F9A868082105F089FACA
:107810001FE0042E08D1A86804A905F08BF9A86818
:10782000082105F086FA14E0082E08D1A86804A9FA
:1078300005F0C2F9A868314605F084FA09E00C2E7B
:1078400007D1A86804A905F0F9F9A868082105F08E
:1078500081FA104B012103EB0414A06805F055FADE
:10786000A068012105F02FFA11E000F095F800283A
:107870007FF470AF00F0D8FA00287FF46FAF054BAB
:1078800003EB04139B7B002B7FF46EAF6FE708B014
:10789000BDE8F08114000020BC02002000366E011B
:1078A0000004004000080040014B1868704700BF0A
:1078B000E807002007B5002100910A460B46024860
:1078C00000F0B8F80EBD00BFB8140020024B1878C5
:1078D0005B78C01A704700BFC0140020064B5A786E
:1078E0001978914204D99918013288785A707047F2
:1078F0004FF0FF30704700BFC0140020054B5A788E
:107900001978914202D99B18987870474FF0FF3050
:10791000704700BFC014002070470000F8B5094B45
:10792000054693F82230164653B10C468F1805E0F1
:107930002B6828461B6814F8011B9847BC42F7D1F6
:107940003046F8BDC014002010B50C4B012293F84E
:10795000224084B193F823401F2C02D942600020BA
:1079600010BD93F824001C1884F82510411C83F8DE
:10797000241083F82310104610BD00BFC01400204F
:10798000002242604FF47A728260014A02607047BE
:107990007821010870477047014B93F859007047F0
:1079A000C014002013B5084C0021009104F16400BC
:1079B0000A460B4600F03EF804F16C0002B0BDE848
:1079C0001040FFF7DDBF00BFC014002008B5034B17
:1079D00053F8203003B1984708BD00BF3C15002084
:1079E00007B5002100910A460B46024800F022F834
:1079F0000EBD00BF7C1500202DE9F0410024074694
:107A00000E4625463B1919790A22304600F08BF8BC
:107A10002E218046304600F055F801344044032CB6
:107A20000544EFD13046F9790A2200F07CF8281895
:107A3000BDE8F08130B58371044D9DF80C300446EB
:107A4000056001714271C37130BD00BF982101080A
:107A5000044B054A1A6000221A715A719A71DA7140
:107A6000704700BF841500209821010807B5002148
:107A700000910A460B460248FFF7DCFF0EBD00BF2F
:107A80008C150020F8B506460C468F18002506E038
:107A9000336830461B6814F8011B98472D18BC4208
:107AA000F6D12846F8BD38B505460C46084641B122
:107AB000FEF7B4FB2B6802465B68284621469847D0
:107AC00038BD38BD08B503681B68984708BD70B558
:107AD00000238AB08DF82430012A98BF0A220DF1C4
:107AE0002303B1FBF2F505FB1211CCB2092C1E46A3
:107AF00001D8303400E0373403F801492946002D1D
:107B0000EFD13146FFF7CFFF0AB070BD10B5044684
:107B100022B90268C9B21268904710BDD2B2BDE85E
:107B20001040FFF7D4BFFFF7F1BF000007B50021F9
:107B300000910A460B460248FFF77CFF0EBD00BFCE
:107B40009815002007B5002100910A460B4602480F
:107B5000FFF770FF0EBD00BFA0150020014B587D40
:107B6000704700BFA81500207047000007B500212E
:107B700000910A460B460248FFF75CFF0EBD00BFAE
:107B8000C015002007B5002100910A460B460248A7
:107B9000FFF750FF0EBD00BFCC15002010B5044606
:107BA0000068FDF73BFC204610BD10B50446006898
:107BB00008B1FDF733FC00232360A360636010BDB0
:107BC00038B504460D4600680131FDF7B3FF10B12A
:107BD00084E82100012038BD036810B504461BB1BC
:107BE00043688B4200D307E02046FFF7E9FF20B14E
:107BF000A3680BB922681370012010BD70B50E4642
:107C0000114604461546FFF7E7FF18B92046FFF76F
:107C1000CCFF04E0A56020683146FEF7A1FA2046BB
:107C200070BD38B50023044603604360836003736E
:107C30000D4639B10846FEF7F1FA294602462046BC
:107C4000FFF7DCFF204638BD884210B50B460446DE
:107C500007D0096819B19A68FFF7D0FF01E0FFF774
:107C6000A4FF204610BD002310B504460360436006
:107C700083600373FFF7E8FF204610BD38B5054663
:107C80000C4641B10846FEF7C9FA2146024628468D
:107C9000FFF7B4FF01E0FFF788FF284638BD826890
:107CA00008B50B461AB901B103E0012008BD11B9AE
:107CB0000368187802E00068FEF75AF9D0F1010075
:107CC00038BF002008BD10B58B688468E41AA24252
:107CD0000CD8006868B1096851B180181A46FEF7DF
:107CE000CFFAD0F1010038BF002010BD002010BD38
:107CF000084610BD82688B689A4202D30022FFF7C3
:107D0000E2BF002070478368994203D2006810B137
:107D1000405C704700207047FFF7F5BF9A422DE99D
:107D2000F04107460D4614461E4601D93446164614
:107D300038460C49FFF775FFAB689C420FD89E424E
:107D400028BF1E462B68002213F806809A55296822
:107D500038460919FFF792FF2B6803F8068038466A
:107D6000BDE8F081784E010810B58B680446FFF736
:107D7000D5FF204610BD006808B1FDF731BB704744
:107D800007B5002100910A460B460248FFF752FE54
:107D90000EBD00BFD415002007B5002100910A4692
:107DA0000B460248FFF746FE0EBD00BFDC15002063
:107DB00007B5002100910A460B460248FFF73AFE3C
:107DC0000EBD00BFE41500204FF0FF307047704734
:107DD00008B5054804F0D5FF0348802104F0D9FF19
:107DE0000028F9D0012008BD00440040202108B53A
:107DF000034804F0CEFF003018BF012008BD00BFCB
:107E00000044004008B5024804F0BFFF08BD00BFB1
:107E100000440040002242604FF47A728260014ABE
:107E200002607047A8210108014B187C704700BF11
:107E3000EC15002013B5084C0021009104F114004A
:107E40000A460B46FFF7F6FD04F11C0002B0BDE840
:107E50001040FFF7DFBF00BFEC15002070474FF068
:107E6000FF307047084608B5FEF7DEFE012008BD6A
:107E700008B5FEF7A5FE08BDFEF7B6BE00224260BB
:107E80004FF47A728260014A02607047C82101088B
:107E90000846FEF785BE000013B5074C002100918F
:107EA00020460A460B46FFF7C5FD04F1080002B064
:107EB000BDE81040FFF7E2BF181600200023036062
:107EC000184670470023036018467047002303607C
:107ED000184670472DE9F04191F8008086B00C46B5
:107EE000B8F1000F14BF90464FF000080646FEF7A9
:107EF00095F907462046FEF791F9182301931E23B2
:107F00000125029302230393059000230095049416
:107F1000404631463A4602F057FB034B18705D70FD
:107F200006B0BDE8F08100BF3016002048F2020321
:107F3000984210B518D005DC992845D0013B9842ED
:107F400046D10DE048F2100398422CD0703398428D
:107F50003ED1204B01229A70DA7000221A7110BDB6
:107F60001C4B01225A7110BD1A4C637953B11A4B44
:107F700000224FF47F401A7003F090F8E72003F0DE
:107F8000F9F806E0A37913B1013BA37101E00123E5
:107F9000A3750023237663716376E375A376E37696
:107FA0002377236210BD0A7D0A4B52B901224FF498
:107FB0007F40DA7503F072F8E720BDE8104003F067
:107FC000D9B80022DA7510BD024B012283F82420B3
:107FD00010BD00BF30160020282000201FB54FF034
:107FE0003C0C0A234FF461514FF461628DE80E108E
:107FF000684601A902AA03AB01F03EFB05B000BD33
:108000001FB50023009301930293039301A86946CF
:1080100002AA03AB01F0F8FA05B000BD70B5554DEA
:10802000002496B0FF202C76AC706C76EC70AC76A9
:108030006C70EC766C71EC7585F824402C6203F062
:108040002DF8E72003F096F821462246204602F05C
:1080500097FA2B46012103F8074F0E200A4601F03C
:108060008FFB04E0642002F0DFFE01F037F86B794B
:10807000012BF7D010210C2001F0CEFB3E4801F07F
:108080009FFF3E4802F0F0FB012002F0D1FB684662
:108090003B4900F075FD374D6E461BE095F82530E5
:1080A000002B5BD0FF2002F077FB38B156E0E720D1
:1080B00003F0A6F8322002F0B7FE00E01A24013CDB
:1080C000F5D10E20012122462E4BAC7101F058FB58
:1080D00085F825406A78AB78264C1343DED0E7203C
:1080E00003F048F8A31D0E200121002201F01AFB25
:1080F000A37813B102F0D6FB20701E4C0121227828
:108100002346013203F8062F0E20002201F038FB2F
:1081100000200146012202F033FA0125234603F82C
:10812000075F29462A460E2001F02AFB02F0AEF92D
:10813000642002F079FE002002F05CF948F244204D
:1081400084F8265002F042FB4FF47F4002F0A6FF75
:10815000E72003F00FF80023A37509E0E72003F000
:108160004FF8FA2002F060FE684600F06BFDB1E7C0
:1081700016B070BD30160020E02101086801002013
:10818000D57E00083616002030B53F4C85B0A06281
:1081900003F0FAFA03F03AFA3C4B3D4900933D4BA9
:1081A0003D4A01933D4B3E4802933E4B00250393CD
:1081B0003D4B02F00BF9642002F036FE002002F085
:1081C00019F9012348F24420E57684F8263002F0BC
:1081D000FDFA364B1B88012B4AD00E2010212A466F
:1081E000A31D01F09FFA002842D10DE08B5401310C
:1081F00000241029FAD12E4B0E20224601F0C0FA9D
:108200002A4B1C8003F006FC1F4DFFF7E7FE0124FC
:108210002B4603F8084F0E202146022201F0B0FA47
:108220002B798BB9AB790BB9AC750DE0E87958B9FE
:108230000146224602F0A4F92B4603F8074F0E2010
:108240002146224601F09CFA0F4B1A790AB99B7D10
:1082500033B94FF47F4002F021FFE72002F08AFF9C
:10826000144801F0BFFA05B0BDE83040FFF7C8BEC2
:10827000FF2002F091FA10210E2001F0CDFA00212A
:108280000B4A0B46B2E700BF30160020C5B6000807
:10829000BD7E0008D9B60008C57E000845B70008B5
:1082A0002D7F00086DB70008CD7E0008AE020020CB
:1082B000361600205C16002030B50220012106226F
:1082C00085B001F0A5FE051E02DA4FF0FF341AE07A
:1082D0000223ADF8003000238DF8023035238DF8ED
:1082E00003301022082369468DF804308DF80530DC
:1082F0008DF806308DF8073001F0DEFE041EE4DB59
:10830000284601F0B3FE204605B030BDF7B5704CED
:1083100094F82E202346002A40F0C88094F82F209D
:10832000002A40F0C380BBE06A4B1B780BB102F01F
:1083300043FF674C0025284684F82E50657184F869
:108340002650E57525766576A576E576257725624E
:1083500003F00CFA642002F067FDA37D3BB12846D0
:1083600002F048F8012384F82630FFF757FE4FF457
:108370007F4002F093FEE72002F0FCFE04E002F0F2
:1083800039F8012384F82630514DAB7D13B1FFF746
:1083900045FE19E02B79BBB1EC7DACB921462246F4
:1083A000204602F0EDF84C48FDF738FF4B4E0746EB
:1083B0003046FDF733FF00960190711F03203A46C7
:1083C000234602F079F82C71414BDA78012A14D156
:1083D000DA7D012A11D15B79012B0ED103244048AB
:1083E000FDF71CFF013C82B23D49012001F0B8FFBE
:1083F00014F0FF04F3D1364BDC70354CE37D002BD9
:1084000065D094F82F30002B61D1237E002B53D000
:108410005DE04FF47F0002F041FE10E0E72002F043
:10842000A9FE4FF4FA7002F0FFFCE72002F0CCFE48
:108430004FF4FA7002F0F8FC237F013B2377227F90
:10844000002AEBD1224B0E2003F8092F0121032231
:1084500001F096F94FF6FF7002F020FEE72002F0DF
:1084600089FEFEF717FF0028194C16DA94F82E3013
:108470006BBBFFF721FF002801DA022300E0032392
:108480002377134C0E20227F234603F8092F012166
:10849000032201F075F9002300E00123237616E0A2
:1084A00094F8260000287FF46FAF68E793F8263031
:1084B000002B7FF439AF67E7642002F0B5FC04F1CC
:1084C000300001F01DF9237F002BC3D0A1E7FEBDD2
:1084D00030160020282000206B01002070010020B1
:1084E0007901002007B5002100910A460B46024899
:1084F000FFF7A0FA0EBD00BF9C1600207047FEE7F4
:10850000FEE7FEE7FEE7704770477047FEF78ABA5E
:1085100008B5024B0BB1AFF3008008BD00000000AE
:1085200008B5024B0BB1AFF3008008BD000000009E
:1085300008B5024B0BB1FFF72DFA08BD957900087D
:1085400008B5024B0BB1FFF726FA08BD9779000872
:1085500008B5024B0BB1FFF707FB08BD697B0008AC
:1085600008B5012004F010F838B1012004F01AF821
:10857000024B13B10020FFF729FA08BDCD7900089E
:1085800008B5022004F000F838B1022004F00AF81F
:10859000024B13B10120FFF719FA08BDCD7900088D
:1085A00008B5042003F0F0FF78B1042003F0FAFFCF
:1085B0000020064B0146188002F0D2FE044810212C
:1085C0000122BDE8084004F097BB08BD2C20002024
:1085D000002C014008B5082003F0D6FF38B1082070
:1085E00003F0E0FF024B13B10320FFF7EFF908BDE2
:1085F000CD79000808B5102003F0C6FF38B110206F
:1086000003F0D0FF024B13B10420FFF7DFF908BDE0
:10861000CD79000808B5202003F0B6FF38B120203E
:1086200003F0C0FF0E4B13B10520FFF7CFF9402038
:1086300003F0AAFF38B1402003F0B4FF084B13B198
:108640000620FFF7C3F9802003F09EFF38B1802099
:1086500003F0A8FF024B13B10720FFF7B7F908BDDD
:10866000CD79000808B54FF4005003F08DFF40B1FC
:108670004FF4005003F096FF174B13B10D20FFF796
:10868000A5F94FF4804003F07FFF40B14FF48040E4
:1086900003F088FF104B13B10E20FFF797F94FF44A
:1086A000004003F071FF40B14FF4004003F07AFF47
:1086B000094B13B10F20FFF789F94FF4006003F065
:1086C00063FF38B14FF4006003F06CFFBDE8084071
:1086D00002F046BB08BD00BFCD79000808B50F48C1
:1086E000102104F040FBB8B10C48102104F046FB07
:1086F000002002F0E1FE20B9094B1A880A321A80E4
:1087000008BD10210548002204F0F6FA00200121DE
:10871000BDE8084002F024BE08BD00BF002C0140A7
:108720002C20002008B5012004F01CF930B10120F4
:1087300004F02AF9BDE8084004F0FAB808BD0000CA
:1087400008B5022004F00EF9B0B10C4B00224FF432
:1087500000301A7003F026FF012004F035F810B144
:10876000012004F03BF804F0E3F8022004F00CF9D7
:10877000BDE8084004F0DCB808BD00BF5F1600206B
:1087800002F07CBA00F062B838B514490B78012BBE
:1087900023D1134A13680BB90B7038BD114C402B11
:1087A000206881B205D94030403B206013604025ED
:1087B00004E09DB2C3182360002313600A482A46D0
:1087C0004018C02104F0EAFF0120294605F0F0F826
:1087D0000120BDE8384005F059B838BD38090020FF
:1087E000400900203C0900203808002008B5094B4A
:1087F00001221A70084B002203201A8005F004F9A8
:10880000064B0246188006484FF48871BDE80840C0
:1088100004F0DBBFEC070020F0070020EE0700208B
:10882000F2070020074B1B68052B09D1064B1A687D
:10883000511C052A196003D100221A60FEF70ABAFA
:10884000704700BF68200020A4160020394A38B5C0
:108850001168394B1980394918880988014001F499
:10886000007189B239B14FF6FF5111609A78013227
:108870009A70FFF7D7FF304A304B10881988154699
:10888000014001F4004189B21C4609B104F0C6FE62
:108890002A882388134003F480639BB233B1254BAD
:1088A0004FF6FF321A60264B5B689847224A234BEB
:1088B00011881B88194001F4005189B219B11D4972
:1088C0004DF6FF7008601288134003F480539BB28A
:1088D00033B1184B4EF6FF721A60002003F0CCFB48
:1088E000154B1A88154B1B88134003F400639BB289
:1088F00063B1144B1B7813B103F09EFB02E002201E
:1089000003F0BAFB0B4B4FF2FF721A600A4B1A8846
:108910000A4B1B88134003F480739BB243B1054B91
:108920004FF6FF6207201A60BDE8384003F0A4BB91
:1089300038BD00BF445C0040A816002098200020ED
:108940000C020020D0020020034B9B7A13B1034B92
:1089500005221A60704700BF7420002068200020A4
:10896000014B04221A60704768200020034B1A78DC
:10897000202A01D100221A70704700BFAC160020D7
:1089800070470000212810B508D1114B1B681B78D7
:1089900003F07F03212B11D0022010BD2028FBD132
:1089A0000B4B0C4A1B681B7803F07F03212B0CBF79
:1089B00013460023084A10700BB9EDE7074B044A31
:1089C000002412682046936154829847204610BDC7
:1089D000702000202D8A0008AC160020158A00089F
:1089E000074B1B681B7803F07F03212B05D102285E
:1089F00001D1002070472228FBD00220704700BF21
:108A00007020002009B1022070470128FBD80846D9
:108A10007047000020B9034B08221B681A82704778
:108A20000148704770200020D401002020B9034B7A
:108A300008221B681A827047014870477020002086
:108A4000D4010020054B1B68DB78042B04D80449B3
:108A500001EBC30104F06ABB0020704770200020C6
:108A6000DC010020014904F061BB00BFFC010020D3
:108A7000014904F05BBB00BF04020020334B344AC1
:108A80001B68D27910B500245A729C72DC722046A1
:108A900004F0AEFE20464FF4007104F0B1FE102148
:108AA000204604F0B9FE4021204604F055FF802105
:108AB000204604F041FF204604F00AFF254B2046E3
:108AC00093F8641004F082FF204604F0F0FE0120C9
:108AD000214604F095FE0120C02104F02DFF012065
:108AE000202104F099FE0120214604F0B2FE02206C
:108AF0004FF4C06104F084FE02204FF4807104F052
:108B00001BFF0220214604F0A4FE0220202104F0D5
:108B100083FE0320214604F073FE03204FF4887186
:108B200004F01AFF0320402104F050FF03204FF40B
:108B3000405104F08EFE0320214604F06DFE2046D5
:108B400004F006FD044B01221A6010BD70200020C5
:108B50004D220108D40100206820002010B5FEF746
:108B6000C5F8054B00241B689C7203F04DFA04F015
:108B700061FF024B1C6010BD7020002068200020A7
:108B800038B504460D46FFF779F9204625614FF4C4
:108B90001651FFF77DF9204638BD000007B50021CA
:108BA00000910A460B460248FEF744FF0EBD00BF87
:108BB000B016002070B506460D46002407E0295D7A
:108BC0003046FFF74FF9012002F02EF90134284614
:108BD000FDF724FB8442F2D370BD00002DE9F84379
:108BE00004460F4690460D46C7EB05095FFA89F922
:108BF0002046FFF73DF90028FADD2046FFF73CF953
:108C0000C145C6B206D100232B7020460C49FFF7A0
:108C1000D1FF0DE00D2EF6D00A2EF4D020463146BD
:108C2000FFF720F905F8016BDEE72046FFF724F98E
:108C30002046FFF71DF90028F7DCBDE8F88300BFE8
:108C4000764E0108F0B585B00446FFF711F900280B
:108C500040F39D802046FFF70FF9C0B2772867D117
:108C600004F1140600212122304604F13505FCF7F9
:108C70007DFE212200212846FCF778FE04F15607EC
:108C8000002384F85630204642497B70FFF792FF5C
:108C9000204631462022FFF7A1FF20463E49FFF73C
:108CA00089FF012220463946FFF798FF94F8563095
:108CB000A3F13002032AF0D8312B0BD120463749DB
:108CC000FFF778FF20463649FFF774FF2046354905
:108CD000FFF770FF94F85620B2F1300708D0204615
:108CE0003149FFF767FF204629462022FFF776FF2C
:108CF00020462E49FFF75EFF23693A463046294653
:108D0000984720462A49FFF755FF20462949FFF793
:108D100051FF20462849FFF74DFF20462749FFF71E
:108D200049FF20462649FFF745FF2046254929E00F
:108D300069282CD1244A01AB10685168002503C36F
:108D40009068224918602046FFF734FF01ABEE5CC3
:108D50002046330903F13001392988BF03F1570157
:108D600006F00F06FFF77EF806F13001392988BFBB
:108D700006F1570120460135FFF774F80C2DE5D1B7
:108D80001349204605B0BDE8F040FFF713BF05B01A
:108D9000F0BD00BFCA4C0108D14C0108FE4C0108CF
:108DA000344D01085F4D0108A54D0108B04D010883
:108DB000F34D0108134E0108464E0108794E010893
:108DC000B84E0108E94E0108E8F7FF1FFF4E010801
:108DD000764E0108002100F004B80D4B5B5843505B
:108DE00004310C480C4B42189A42FFF4F6AF0B4A80
:108DF00000F003B8002342F8043B094B9A42FFF409
:108E0000F9AF03F083F8FDF795FFFDF77FFD70479D
:108E10007C4F010800000020DC070020DC07002058
:108E200064210020FFF7FEBF73B544790023022CB4
:108E3000019310D0032C1BD0012C2DD1174D2B6981
:108E40002E462BB12B6901A89847024600B118E0C5
:108E5000B16801201CE0114DEB682E462BB1EB6888
:108E600001A89847024600B10BE0B16802200FE06C
:108E70000A4D6B692E464BB16B6901A898470246B3
:108E800020B1A9682046BDF8043003E0B168032092
:108E90000022134600F054FB7CBD00BF6817002081
:108EA000072810B50CD801290AD8012404FA00F4C7
:108EB00001FA00F0034B1A6822EA040202431A6026
:108EC00010BD00BF64020020F0B5012187B0054647
:108ED00004F0CEFD00F480439BB204464BB3B0F5E2
:108EE000824F26D12846052104F0C2FD0026074600
:108EF0000735344607E02846022104F0B9FD013663
:108F000024180435B6B2BE42F5D1724B1A8EA2189F
:108F10001A86DA6BA418DC63D96B9A6B914200D085
:108F2000CAE093F84020002A00F0C6809B6999208F
:108F300033E024F4FF4626F07F06B6B2002E00F0A0
:108F4000988048F210039C422BD00CD8B4F5004F07
:108F500040F2BC8048F202039C4217D902339C4283
:108F600040F0B48012E048F280039C420ED005D855
:108F700048F240039C4240F0A9804FE0B4F5024F14
:108F800004D0B4F5084F40F0A1806AE0514B9A69D3
:108F9000002A00F091809B69204600210A469847EC
:108FA0008AE00023E91849796A4699540133042B71
:108FB000F8D16B7A05F10D068DF80430AB7A8DF897
:108FC0000530EB7A8DF806302B7B8DF807300023C7
:108FD000D118F05C0133042B0872F9D105F11100AE
:108FE000002300A9CA18C15C0133042B1173F8D106
:108FF00005F11500002300A9CA18C15C0133042B38
:109000001174F8D12B798DF81430324B9A69002AFB
:1090100052D09B69204669461522C0E705350021DC
:10902000284604F02CFD04210090284604F027FD7A
:1090300008210190284604F022FD0C2102902846C8
:1090400004F01DFD10210390284604F018FD214B6B
:1090500004909A69002A2FD09B6920466946142201
:109060009DE71C4B9A693AB39B692046691D012212
:1090700095E7A4F58053033B9AB20C2A1ED8164AF2
:109080001BB29A401AD56C1D0421204604F0F7FC4F
:1090900039301BD12A790F4B31462046DA6204F071
:1090A000EEFC04210546204604F0E9FC393003D1EA
:1090B00028460121FFF7F4FE012008E0054B1B883C
:1090C0009BB29C4202D0B4F5805FF5D1002007B07E
:1090D000F0BD00BF681700200000188038B50A4CAA
:1090E00063889BB20BB9002038BD60680378042BFD
:1090F000F9D1FFF7E9FE01280546F4D1002363808A
:1091000001F06AFC284638BD681700202DE9F74FAA
:10911000BA4F044688460192002541F2070B7B882E
:109120009BB2002BFBD07E683378042B40F0688123
:109130003046012104F09CFC05463046FFF7C4FE92
:10914000002840F054815D4506F1050A30D841F20F
:10915000060295426ED240F2022295426AD011D8A0
:109160000C2D07D8082D65D2002D00F04081062D6A
:1091700060D9D9E00D2D5AD040F201239D4240F034
:10918000368154E041F2020295420BD8B5F5805F7A
:1091900050D8B5F5017F4AD940F20722954240F0F8
:1091A00026814DE041F2040295427AD061D891E0E7
:1091B00041F2110295423AD016D841F20B02954283
:1091C00038D006D841F20902954233D000F2A68089
:1091D0008DE041F20F0295427CD03DD841F20D0264
:1091E000954240F004815CE042F2060295421ED0B6
:1091F00008D8B5F5005F40F2FA8042F204039D42C0
:1092000015D9B5E042F208029542C0F0F080013273
:1092100095420CD944F20B02954240F0E8807279F5
:10922000504601213A8604F023FC7886DFE033794A
:109230002370DCE05046002104F021FC2060D6E0E1
:109240003279002104F8012B504604F018FC014645
:10925000204604F0FFFBCAE00021504604F00FFC5A
:10926000A14649F8040B0421504604F008FC606054
:10927000BCE00021504604F002FC0421206050466E
:1092800004F0FDFB083444F8040C06F10D032246FB
:1092900006F11D0153F8040B8B4242F8040BF9D17F
:1092A000A5E00021504604F0EAFB0421206050466E
:1092B00004F0E5FB08216060504604F0E0FBE36841
:1092C00004F108093933A06040F090800121FFF7D4
:1092D000E7FD8BE00021504604F0D1FB0421206023
:1092E000504604F0CCFB083444F8040C7FE0002125
:1092F000504604F0C4FB04212060504604F0BFFB3C
:1093000008216060504604F0BAFB0C21A060504672
:1093100004F0B5FB04F10C09E06067E032792271DA
:10932000DAF80030236062E00021504604F0A7FB29
:1093300004212060504604F0A2FB082160605046E2
:1093400004F096FB0A21A060504604F091FB0C3417
:1093500044F8020C06F11103224606F1350153F8D8
:10936000040B8B4242F8040BF9D11B8813803EE0BA
:109370000023F2185279E2540133042BF9D106F19B
:1093800009000023C15CE2180133042B1171F9D1EB
:1093900006F10D000023C15CE2180133042B1172A9
:1093A000F9D106F111000023C15CE2180133042B4E
:1093B0001173F9D106F115000023C15CE2180133E5
:1093C000042B1174F9D106F119000023C15CE218D5
:1093D0000133062B1175F9D106F11F000023C15C82
:1093E000E2180133202B9176F9D100E04C463B88FE
:1093F0009BB29D4225D100233B8022E068170020CC
:109400003046032196F8029004F032FB8246B8F110
:10941000000F0CD00421701D04F031FB019B0246AB
:10942000186006F115014046D2B2FBF771FE09F152
:10943000050120467118C9EB0A02FBF769FE0023FB
:10944000FB8600237B8001F0C7FA3378042B05D11B
:10945000B5F5805F02D13046FFF7E6FC064A138877
:109460009BB2002B7FF45BAEF88E80B200287FF4B5
:1094700056AEBDE8FE8F00BF6817002007284FF0EA
:10948000010308D803FA00F0044B1A6810420CBF1D
:109490000020012070471846704700BF640200207A
:1094A000034B1880084600210A46FFF72FBE00BF75
:1094B0006817002010B5034B0124DC86BDE810407E
:1094C000FFF724BE6817002038B503461546012271
:1094D0004A710C46881D194604F0C5FA291D05700D
:1094E000204601F03BFB002038BD38B5BDF81450D4
:1094F0009B18ED180C46ADB202216171A071E271AA
:10950000294604F1080004F0AEFA691D204689B22C
:1095100001F024FB002038BD38B59B180C469DB2E5
:1095200002216171A0712946E27104F1080004F082
:109530009AFA691D204689B2BDE8384001F00EBB99
:109540002DE9F0471D4605F1020A032301F1070842
:109550001FFA8AFA88714B710C46404651461746ED
:1095600004F081FAB5F57A7F814613D8294604F0D4
:109570007AFA2946484604F076FA394604F10B0097
:109580002A46FBF7C5FDA91D204689B2BDE8F04774
:1095900001F0E4BA4FF47A76B5FBF6F30AEB430137
:1095A00089B204F060FA4846314604F05CFA394664
:1095B000324604F10B00FBF7ABFD204640F2EE31E2
:1095C00001F0CCFAA5F57A75ADB2BF1904F1050921
:1095D000B5F57A7F05D9A5F57A75ADB24FF47A76EF
:1095E00001E02E4600253946A4F805604046324683
:1095F000FBF78EFDB11C484689B2BF1901F0AEFAE7
:10960000002DE5D1BDE8F087F7B51E46FF238DF8A4
:109610000730184B00259C68475D63190135042D00
:109620005F72F9D100200D5C2318013004285D73AE
:10963000F9D10021505C6318013104295874F9D123
:1096400004F11500002104F005FA0022B35C8354F4
:109650000132042AFAD12146142242F20100FFF716
:1096600033FF42F201000DF10701FFF719FF9DF9E9
:109670000700FEBD681700202DE9F3411F46FF23B8
:109680008DF807301D4B0646D3F8088033680C462A
:10969000013B122B154608F1090001D81423336051
:1096A0002368013B122B01D8142323602B68013B54
:1096B000122B01D814232B603B68013B122B01D8DD
:1096C00014233B60316804F0C5F9216804F0C2F945
:1096D000296804F0BFF9396804F0BCF94146142246
:1096E00042F20900FFF7F0FE42F209000DF1070116
:1096F000FFF7D6FE9DF90700BDE8FC816817002042
:1097000038B5074B42F20504054699682046002209
:10971000FFF7DAFE20462946BDE83840FFF7C0BE15
:10972000681700202DE9F3411F4602ACFF2304F81F
:10973000013D124B86469E680D4606F109007146B2
:10974000904604F087F9294604F084F940F2012597
:10975000414604F07FF90C2231462846FFF7B4FE5B
:1097600028462146FFF79CFE002138460A46FFF7AF
:10977000A1FE9DF80700BDE8FC8100BF681700202E
:109780002DE9F341984602AD4FF0FF3345F8043D13
:10979000134B86469E680C4606F10A007146174632
:1097A00004F058F90C2104F055F9214604F052F95F
:1097B000394604F04FF94146224606F11A00FBF7FC
:1097C000A7FC902031461022A3B2FFF7A5FE40F27D
:1097D00002202946FFF764FE0198BDE8FC8100BF26
:1097E0006817002037B50B4B40F2072504469968EF
:1097F00000222846FFF768FE28466946FFF750FE1C
:109800009DF803309DF8000023709DF804306370CC
:109810003EBD00BF6817002037B50D4A0346956866
:109820000C4605F10900194604F014F9214640F2EE
:10983000032404F00FF9294608222046FFF744FECE
:1098400020460DF10601FFF72BFEBDF806003EBDD8
:10985000681700202DE9F0470023CA5CC254013389
:10986000102BFAD1374B0022991891F80190477BC1
:109870000178857B89EA0109D919C97A90F80C80A9
:1098800089EA0109591991F80BC0417880F81090C4
:109890008CEA010CC17B80F811C05C18E67A8478F0
:1098A0005FFA8CFC664003EB080494F80BA0C478C4
:1098B00086748AEA040490F804A0F6B289EA0A09D8
:1098C00090F805A0C4748CEA0A0C90F806A0E4B2E3
:1098D00086EA0A0690F807A080F8149084EA0A0441
:1098E00090F808A05FFA89F989EA0A0990F809A0B6
:1098F00080F815C05FFA8CFC8CEA0A0C90F80AA07C
:109900008675F6B286EA0A0690F80BA0C475E4B232
:1099100084EA0A0489EA08088CEA0707754061406E
:10992000013280F8189080F819C08676C47680F8E5
:109930001C8047778577C17710300A2A94D1BDE81B
:10994000F08700BFA222010810F0800F4FEA40000C
:1099500018BF80F01B00C0B2704700002DE9F04F27
:1099600091F8A0A0037897B08AEA030A80F800A0D3
:1099700091F8A120437804465340437091F8A22007
:10998000059383785340837091F8A3200693C3789E
:109990005340C37091F8A4900793037989EA0309AF
:1099A00080F8049091F8A56043795E40467191F883
:1099B000A62083795340837191F8A7200893C37937
:1099C0005340C37191F8A8800C93037A88EA030886
:1099D00080F80880437A91F8A9705F40477291F847
:1099E000AA20837A5340837291F8AB000993E37AFB
:1099F0004340E37291F8ACC00D93237B8CEA030CD7
:109A000084F80CC091F8ADE0637B8EEA030E84F815
:109A10000DE091F8AE50A37B5D40A57391F8AF20A7
:109A2000E37B5A404B4BE2739A449AF80B0191F84E
:109A300090A0994480EA0A00207099F80BA191F84F
:109A4000949098448AEA090984F8049098F80B9154
:109A500091F898809C4489EA080884F808809CF86A
:109A60000B8191F89CC09E4488EA0C0C84F80CC0D1
:109A70009EF80BC191F891E0DF198CEA0E0E97F871
:109A80000BC191F89D709E198CEA0707677396F8D1
:109A90000B7191F89960DDF814B07E40667203EBAB
:109AA0000B0696F80B7191F89560DDF818C07E40B2
:109AB000667184F801E003EB0C0696F80B71DDF893
:109AC00020E091F89A600998774003EB0E0696F82B
:109AD0000BE191F89E605D198EEA060603EB000E1D
:109AE0009EF80BC191F892E0DDF834A08CEA0E0EDE
:109AF00084F802E095F80BE191F89650A673079E62
:109B00008EEA0505A571A7729D1995F80B610C9F4A
:109B100091F89F5003EB0A007540DE1996F80B711F
:109B200091F893609A187E40E67090F80B6191F876
:109B300097004FF0090B7040E07192F80B0191F81B
:109B40009B20CDF844B04240E573E2720D461E46BC
:109B500002E000BFA222010894F8009094F802A04D
:109B60008AEA0900FFF7F0FEFFF7EEFEE77894F8C7
:109B700001B0804687EA0B00FFF7E6FEFFF7E4FE40
:109B800094F804C0A37988EA090980EA0B0B88EAF3
:109B90000A0A80EA070883EA0C000193CDF808C09E
:109BA000FFF7D2FEFFF7D0FE6179E779024687EA38
:109BB000010003910492FFF7C7FEFFF7C5FE049A68
:109BC000DDF808C0019B82EA0C0C534003995FFA50
:109BD0008CFCDBB2CDF814C0079394F808C0A37ACC
:109BE00041404740C9B283EA0C00FFB20193CDF86F
:109BF00008C006910897FFF7A7FEFFF7A5FE617A58
:109C0000E77A024687EA010003910492FFF79CFE7F
:109C1000FFF79AFE049ADDF808C00399019B82EAD7
:109C20000C0C53404140C9B25FFA8CFCDBB20A9184
:109C3000CDF824C00B9394F80CC0A37B4740FFB22F
:109C400083EA0C000193CDF808C00C97FFF77CFE67
:109C5000FFF77AFE617BE77B024687EA010003910A
:109C60000492FFF771FEFFF76FFE049A019BDDF887
:109C700008C0039953405FFA89F95FFA8BFB5FFADA
:109C80008AFA5FFA88F882EA0C0C4140DBB247405E
:109C90005FFA8CFCC9B28BEA09000F93FFB288EA25
:109CA0000A03CDF834C00E910193109783EA0007A0
:109CB000FFF74AFE89EA000087EA0002D2B222706A
:109CC0008AEA0B000092FFF73FFE8BEA0000019B3F
:109CD00087EA000B5FFA8BFB184684F801B0CDF8D9
:109CE00048B0FFF731FE8AEA000087EA000A5FFA0F
:109CF0008AFA88EA090084F802A0CDF84CA0FFF7A0
:109D000023FE88EA00004740FFB2069BDDF81CB046
:109D1000DDF820A01497E770059F8AEA0B0883EA14
:109D2000070088EA0007FFF70FFEDDF814C0069968
:109D30008CEA00007840C0B2159020718BEA0100D7
:109D4000FFF702FE069A50407840C0B2069060715C
:109D50004046FFF7F9FD8BEA0000059B7840C0B252
:109D60000790A0718AEA0300FFF7EEFD8AEA00007F
:109D70004740FFB2DDF82CC0DDF830B0DDF824A09C
:109D80000597E7710A9F87EA0A008BEA0C0787EAC2
:109D90000008FFF7D9FD8AEA000088EA00095FFAA7
:109DA00089F984F808900B990A9A81EA0200FFF772
:109DB000CBFD0A9B584088EA000A5FFA8AFA84F8C9
:109DC00009A03846FFF7C0FD0B9FDDF824C078409E
:109DD00088EA0007FFB28BEA0C00A772FFF7B4FD18
:109DE0008BEA00000E990D9ADDF83CC0DDF840B01A
:109DF00088EA00085FFA88F88BEA0C0381EA02001F
:109E000084F80B8083EA000B0193FFF79DFD0D9909
:109E10000F9A48408BEA000C0E995FFA8CFC84F88C
:109E20000CC082EA0100CDF808C0FFF78DFD0E9A44
:109E3000019B50408BEA0001C9B26173184603913F
:109E4000FFF782FD0F9B109A58408BEA0003DDF864
:109E500034E0DBB2A37382EA0E000193FFF774FDD6
:109E6000109AF71950408BEA000B00985FFA8BFBB1
:109E700084F80FB0321892F80B0195F88020424018
:109E800015982270321892F80B0195F88420424000
:109E9000227106EB090292F80B0195F88820DDF893
:109EA00008C04240227206EB0C0292F80B0195F8B2
:109EB0008C20039942402273711895F8812091F803
:109EC0000B11DDF848C04A4006EB0A0191F80B017E
:109ED00095F88D10DDF818A04140617306EB0A017A
:109EE00091F80B0195F88910DDF81CA041406172D2
:109EF00006EB0C0191F80B0195F88510627041405A
:109F00006171139997F80B71721892F80B1195F80B
:109F10008A20019B514006EB0A0292F80B0195F84A
:109F20008E20F318424095F882007840A07093F894
:109F30000B0195F886304340A371DDF850C0A17243
:109F4000A27306EB0C07059995F88F3097F80B2153
:109F50007718534097F80B1195F883204A40E27028
:109F600006EB080292F80B1195F887204A40E2713F
:109F700006EB0B0292F80B1195F88B20E3734A4025
:109F8000E272119A531E103D13F0FF0311937FF4F8
:109F9000E3AD17B0BDE8F08F38B5054C0546204657
:109FA000FFF758FC28462146BDE83840FFF7D6BCED
:109FB000B8160020034610210C200022FFF7B2BB88
:109FC000034610210C200022FFF7DABB70B50F4DBD
:109FD0000646EB6A0D4C4BB1FBF706FAE36A0360E9
:109FE0000023E362FBF700FA006870BD3046FFF71C
:109FF00045FA38B92A8E92B2002AEAD0228E013A66
:10A00000228670BD4FF0FF3070BD00BF6817002082
:10A01000F7B5174602AC4FF0FF3244F8042D124A50
:10A02000034696680D4606F10900194603F012FD35
:10A03000294603F00FFD41F20105394603F00AFD00
:10A040000C2231462846FFF73FFA21462846FFF703
:10A0500027FAFBF7C9F9019B002103601846FEF7B8
:10A060001FFF0198FEBD00BF68170020F7B54FF035
:10A07000FF3302AC44F8043D0E4B05469F68294669
:10A0800041F20B0607F1090003F0E4FC0422394613
:10A090003046FFF719FA21463046FFF701FAFBF781
:10A0A000A3F9019B012103602846FEF7F9FE019800
:10A0B000FEBD00BF6817002037B54FF0FF32019298
:10A0C000124A034694680D4604F10900194603F04C
:10A0D000C1FC082103F0BEFC082103F0BBFC0023F7
:10A0E000EA5CC2540133082BFAD11422214641F212
:10A0F0000700FFF7E9F901A941F20700FFF7D0F9DE
:10A10000FBF772F9019B036018463EBD68170020FB
:10A110002DE9FF411D46314B8646D3F808800F4696
:10A1200008F10900714616460A9C03F093FC1421BD
:10A1300003F090FC142103F08DFC142103F08AFC41
:10A14000142103F087FCD4F1010138BF002103F092
:10A1500081FC0FB1396800E0394603F07BFC0EB199
:10A16000316800E0314603F075FC0DB1296800E06C
:10A17000294603F06FFC74B1216839B9636841F274
:10A1800087329342DCBF41F28833636003F062FCA4
:10A19000616803F05FFC2C22414641F20800FFF7A2
:10A1A00093F941F208006946FFF77AF9009B002B0A
:10A1B00009DB0FB1019838600EB10298306045B1EB
:10A1C0000398286005E0FBF70FF9009B03604FF050
:10A1D000FF33184604B0BDE8F08100BF68170020C7
:10A1E0002DE9FF419846154B07469D6814460E46DB
:10A1F00005F10900394603F02DFC214603F02AFC45
:10A20000414603F027FCBDF830400C222946204689
:10A21000FFF75AF9204601A9FFF742F9029B002BEC
:10A2200004DD30460A990B9AFFF744F9FBF7DCF896
:10A23000029B0360184604B0BDE8F0816817002057
:10A240001FB500240094019441F204040294FFF726
:10A25000C7FF04B010BD00002DE9F04F89B0039195
:10A2600014469B46139E149D0290FFF7AFFEDDF847
:10A2700008C0002859D12E4B9A6B01329A63D3F84B
:10A280000890812D09F10A0207D0832D0AD104F12B
:10A29000080A09F12208182704E009F11A08102712
:10A2A000064612906146104603F0D4FB391F03F0B6
:10A2B000D1FB214603F0CEFB594603F0CBFB832DA7
:10A2C00005D1514603F0C6FB082103F0C3FB002271
:10A2D00004E0039B995C08F802100132A242F8DB0B
:10A2E000002CA8BFA044832D12D0129BB6B28DE8DB
:10A2F0004800E8B249463A46A3B2FFF7F6F8832D84
:10A300000DD109E0129B995C08F80210013200E0BF
:10A310000022B242F6DBE8E741F20F0001E041F231
:10A32000030005A9FFF7BCF8204609B0BDE8F08F8F
:10A33000681700201FB50024009401948124029422
:10A34000FFF78AFF04B010BD1FB5069C0094079C60
:10A35000019483240294FFF77FFF04B010BD000036
:10A36000202A73B503460E46144622D8124A1946CF
:10A37000956805F1090003F06DFB082103F06AFB05
:10A38000214603F067FB002302E0F25CC254013374
:10A39000A342FADB04F10C022946D2B241F21100C9
:10A3A000FFF792F841F2110001A9FFF779F801983F
:10A3B00001E04FF0FF307CBD68170020024B012206
:10A3C0005A805860FEF78ABE6817002010B5084C06
:10A3D000E16022616361029BE361039B2362049B52
:10A3E0006362059BA3620123A06184F8403010BD25
:10A3F0006817002070B5224C0023A363E363238019
:10A4000023866386A386E386E362638063601D4BD5
:10A4100005461D48A36000F0BDFAE3699847A36AAA
:10A420000646012098470EB3E36998470028FBD100
:10A43000134C002D14BF02250025A16801224D7286
:10A440004FF48040FFF740F800214FF48040FFF7C1
:10A4500027F8A168002244F20B00FFF735F844F218
:10A460000B000021BDE87040FFF71AB8E369984778
:10A470000028FBD0E36998470028FBD1D8E700BF4C
:10A4800068170020141C0020BDA3000838B5094C33
:10A490000020A36A98472546EB69064C9847002898
:10A4A000FAD0A3680BB10023A360BDE8384000F0E8
:10A4B00085BA00BF681700202DE9F04F9A4685B095
:10A4C0004FF0FF3301932D4B1446D3F8089000252D
:10A4D0008346884609F109001C210F9E0E9F0295B4
:10A4E000ADF80C5003F0B6FA214603F0B3FA594622
:10A4F00003F0B0FA04F1100103F0ACFA314603F0B6
:10A50000A9FA294603F0AFFABAF1000F08D01AF8F9
:10A51000053043550135062DF9D1063000230BE0F7
:10A52000534602AA9A5CC2540133062BF9D1F4E7D0
:10A5300018F80320C2540133A342F9DB002CA8BF52
:10A54000001946B1002327B905E0FA5CC254013373
:10A55000FFE7B342F9DB1C34A219D2B2494601200D
:10A56000FEF7B2FF012001A9FEF79AFFFAF73CFFC0
:10A57000019B0360184605B0BDE8F08F6817002006
:10A58000F7B5174602AC4FF0FF3244F8042D0D4AE0
:10A59000034695680E4605F10900194603F05AFA7C
:10A5A000314603F057FA394603F054FA29460C2293
:10A5B0000420FEF789FF04202146FEF771FF019871
:10A5C000FEBD00BF681700202DE9F04F144685B08E
:10A5D00000220292ADF80C206E4A8346D2F8089011
:10A5E0000D4609F1090059469A460E9F0F9E03F049
:10A5F00031FABBF1030F00F2BF80DFE80BF0022F4E
:10A600007777142103F026FA214603F023FA00217C
:10A6100003F029FABAF1000F07D000221AF802104D
:10A6200081540132062AF9D106E0534602AA9A5C07
:10A63000C2540133062BF9D10630394603F00AFA29
:10A640004FF0000805E015F8083000F8083008F170
:10A650000108A045F7D108F118088DE0202103F08A
:10A66000F9F9214603F0F6F9002103F0FCF9BAF1FB
:10A67000000F07D000221AF8021081540132062A76
:10A68000F9D106E0534602AA9A5CC2540133062B64
:10A69000F9D13946063003F0DDF904F10C0103F07D
:10A6A000D9F9314603F0D6F9109903F0D3F9002314
:10A6B00002E0EA5CC2540133A342FAD1001900233C
:10A6C0000422129FC518F9184FF0000805E011F890
:10A6D000087005F8087008F10108B045F7D1013A93
:10A6E0004344EED1243404EB880845E0282103F0EC
:10A6F000B1F9214603F0AEF9002103F0B4F9BAF143
:10A70000000F07D000221AF8021081540132062AE5
:10A71000F9D106E0534602AA9A5CC2540133062BD3
:10A72000F9D13946063003F095F9314603F092F934
:10A73000109903F08FF9119903F08CF904F10801D5
:10A7400003F088F9139903F085F9002302E0EA5C2D
:10A75000C2540133A342FAD100194FF0000806E0B9
:10A76000129A12F8083000F8083008F10108139B1B
:10A770009845F5D12C34A04449465FFA88F205206B
:10A78000FEF7A2FE052001A9FEF78AFE019805B09A
:10A79000BDE8F08F6817002037B50B4B01469D6868
:10A7A00002AC05F1090003F055F94FF0FF3344F80E
:10A7B000043D294604220620FEF786FE0620214697
:10A7C000FEF76EFE01983EBD6817002037B548F2CF
:10A7D000080248F2080102408A42034613490BD19D
:10A7E0000020934281F840001FD023F4004323F05F
:10A7F000080343F4004302E0012281F8402002AC48
:10A800004FF0FF3244F8042D084A1946956805F1C7
:10A81000090003F01FF9294604220820FEF754FE20
:10A8200008202146FEF73CFE01983EBD6817002037
:10A8300073B50C4B01469D684FF0FF3602AC05F135
:10A840000900019603F006F944F8046D2946042234
:10A850000A20FEF739FE0A202146FEF721FE019864
:10A860007CBD00BF6817002007B50D4A4FF0FF33CD
:10A870000193916890B154238370037043704B72BD
:10A88000437803228B7283780C20CB72FEF71CFE78
:10A890000C2001A9FEF704FE019800E018460EBD49
:10A8A000681700202DE9F041384E86B006F14400CB
:10A8B000FFF780FB0546002863D106F154042A46C1
:10A8C0000D2043212346FEF72DFF0546002858D1D1
:10A8D00096F8547006F1440107F1030844442046F9
:10A8E000FFF75AFB96F85430F31893F85530102BB5
:10A8F00005D904F1100006F14401FFF74DFBE37F99
:10A90000224A33B102EB080393F854301F2B06D1CF
:10A9100003E002EB080393F85430013400E02023F5
:10A9200092F85410521892F85620032A29D8DFE8DA
:10A9300002F0020E191900200123009301900290E9
:10A9400003900490059012493A46034616E0012010
:10A950008DE80900002302930393049405930C49A6
:10A960003A460BE0012018211E2202258DE827001F
:10A9700007490593049403203A460023FFF724FE79
:10A980000546284606B0BDE8F08100BF68170020E4
:10A99000BD17002008B5074B0022194641F8140BDB
:10A9A0009A601961DA80DA609A80034B1B6A9847D3
:10A9B00008BD00BF001800206817002008B5044B30
:10A9C0001A690AB100221A61024B5B6A984708BDF6
:10A9D0000018002068170020024B4FF480725A6064
:10A9E000704700BF00E100E008B5074B4FF48072EC
:10A9F000C3F8842000F05EFE044B022218699A60BE
:10AA000005301B68984708BD00E100E000180020F1
:10AA100070B50646002014460D4600F03BFE012EA0
:10AA2000A4B207D130462946224600F0BBFD0020E3
:10AA3000124907E0124B01201969224600F0B2FDCD
:10AA400000202946224600F0ADFD0E4802210122D9
:10AA500001F034FD012000F01DFE0A4801F036FD32
:10AA60000028FAD1084801F031FD0028FAD1074842
:10AA7000802101F0CBFF0028F9D170BD68020020D1
:10AA800000180020580002404400024000380040F6
:10AA900003460A4601201946FFF7BABF70B50646BD
:10AAA000002014460D4600F0F5FD012EA4B207D19A
:10AAB00030462946224600F075FD0020104907E087
:10AAC000104B01201969224600F06CFD0020294638
:10AAD000224600F067FD012000F0DCFD0A4801F08D
